{
    "contractName": "Election",
    "abi": [
        {
            "anonymous": false,
            "inputs": [
                {
                    "indexed": true,
                    "internalType": "uint256",
                    "name": "candidateId",
                    "type": "uint256"
                },
                {
                    "indexed": false,
                    "internalType": "string",
                    "name": "name",
                    "type": "string"
                },
                {
                    "indexed": false,
                    "internalType": "uint256",
                    "name": "numvotes",
                    "type": "uint256"
                }
            ],
            "name": "CandidateRegistered",
            "type": "event"
        },
        {
            "anonymous": false,
            "inputs": [
                {
                    "indexed": true,
                    "internalType": "address",
                    "name": "voterAddress",
                    "type": "address"
                },
                {
                    "indexed": false,
                    "internalType": "string",
                    "name": "name",
                    "type": "string"
                },
                {
                    "indexed": false,
                    "internalType": "uint256",
                    "name": "number_id",
                    "type": "uint256"
                }
            ],
            "name": "VoterRegistered",
            "type": "event"
        },
        {
            "inputs": [],
            "name": "administrator",
            "outputs": [
                {
                    "internalType": "address",
                    "name": "",
                    "type": "address"
                }
            ],
            "stateMutability": "view",
            "type": "function"
        },
        {
            "inputs": [
                {
                    "internalType": "uint256",
                    "name": "",
                    "type": "uint256"
                }
            ],
            "name": "candidateById",
            "outputs": [
                {
                    "internalType": "string",
                    "name": "party",
                    "type": "string"
                },
                {
                    "internalType": "uint256",
                    "name": "numvotes",
                    "type": "uint256"
                },
                {
                    "internalType": "uint256",
                    "name": "voteCount",
                    "type": "uint256"
                }
            ],
            "stateMutability": "view",
            "type": "function"
        },
        {
            "inputs": [
                {
                    "internalType": "uint256",
                    "name": "",
                    "type": "uint256"
                }
            ],
            "name": "candidates",
            "outputs": [
                {
                    "internalType": "string",
                    "name": "party",
                    "type": "string"
                },
                {
                    "internalType": "uint256",
                    "name": "numvotes",
                    "type": "uint256"
                },
                {
                    "internalType": "uint256",
                    "name": "voteCount",
                    "type": "uint256"
                }
            ],
            "stateMutability": "view",
            "type": "function"
        },
        {
            "inputs": [
                {
                    "internalType": "uint256",
                    "name": "_candidateId",
                    "type": "uint256"
                }
            ],
            "name": "getVotes",
            "outputs": [
                {
                    "internalType": "uint256",
                    "name": "",
                    "type": "uint256"
                }
            ],
            "stateMutability": "view",
            "type": "function"
        },
        {
            "inputs": [],
            "name": "getWinner",
            "outputs": [
                {
                    "internalType": "uint256",
                    "name": "",
                    "type": "uint256"
                }
            ],
            "stateMutability": "view",
            "type": "function"
        },
        {
            "inputs": [
                {
                    "internalType": "string",
                    "name": "_name",
                    "type": "string"
                },
                {
                    "internalType": "uint256",
                    "name": "_number",
                    "type": "uint256"
                }
            ],
            "name": "registerCandidate",
            "outputs": [],
            "stateMutability": "nonpayable",
            "type": "function"
        },
        {
            "inputs": [
                {
                    "internalType": "string",
                    "name": "_name",
                    "type": "string"
                },
                {
                    "internalType": "uint256",
                    "name": "_number_id",
                    "type": "uint256"
                }
            ],
            "name": "registerVoter",
            "outputs": [],
            "stateMutability": "nonpayable",
            "type": "function"
        },
        {
            "inputs": [
                {
                    "internalType": "uint256",
                    "name": "_candidateId",
                    "type": "uint256"
                }
            ],
            "name": "vote",
            "outputs": [],
            "stateMutability": "nonpayable",
            "type": "function"
        },
        {
            "inputs": [
                {
                    "internalType": "address",
                    "name": "",
                    "type": "address"
                }
            ],
            "name": "voters",
            "outputs": [
                {
                    "internalType": "string",
                    "name": "name",
                    "type": "string"
                },
                {
                    "internalType": "uint256",
                    "name": "number_id",
                    "type": "uint256"
                },
                {
                    "internalType": "bool",
                    "name": "isRegistered",
                    "type": "bool"
                },
                {
                    "internalType": "bool",
                    "name": "hasVoted",
                    "type": "bool"
                },
                {
                    "internalType": "uint256",
                    "name": "votedFor",
                    "type": "uint256"
                }
            ],
            "stateMutability": "view",
            "type": "function"
        }
    ],
    "bytecode": "608060405234801561001057600080fd5b50610ab7806100206000396000f3fe608060405234801561001057600080fd5b50600436106100935760003560e01c8063a3ec138d11610066578063a3ec138d14610101578063e661ea5f14610125578063f518b52614610138578063f53d0a8e1461014b578063ff9810991461017657600080fd5b80630121b93f146100985780631159727a146100ad5780633477ee2e146100d85780638e7ea5b2146100eb575b600080fd5b6100ab6100a6366004610718565b610189565b005b6100c06100bb366004610718565b6102d4565b6040516100cf93929190610777565b60405180910390f35b6100c06100e6366004610718565b61037e565b6100f36103b1565b6040519081526020016100cf565b61011461010f36600461079c565b61040d565b6040516100cf9594939291906107cc565b6100ab610133366004610819565b6104cd565b6100ab610146366004610819565b6105ff565b60005461015e906001600160a01b031681565b6040516001600160a01b0390911681526020016100cf565b6100f3610184366004610718565b6106b9565b3360009081526002602081905260409091209081015460ff166101f35760405162461bcd60e51b815260206004820152601d60248201527f54686520766f746572206d75737420626520726567697374657265642e00000060448201526064015b60405180910390fd5b6002810154610100900460ff161561024d5760405162461bcd60e51b815260206004820152601c60248201527f54686520766f7465722068617320616c726561647920766f7465642e0000000060448201526064016101ea565b60015482106102935760405162461bcd60e51b815260206004820152601260248201527124b73b30b634b21031b0b73234b230ba329760711b60448201526064016101ea565b6002808201805461ff00191661010017905560038083018490556000848152602091909152604081209091018054916102cb836108e4565b91905055505050565b6003602052600090815260409020805481906102ef906108fd565b80601f016020809104026020016040519081016040528092919081815260200182805461031b906108fd565b80156103685780601f1061033d57610100808354040283529160200191610368565b820191906000526020600020905b81548152906001019060200180831161034b57829003601f168201915b5050505050908060010154908060020154905083565b6001818154811061038e57600080fd5b90600052602060002090600302016000915090508060000180546102ef906108fd565b60008080805b600154811015610405576000818152600360205260409020600201548210156103f3576000818152600360205260409020600201549092509050815b806103fd816108e4565b9150506103b7565b509092915050565b600260205260009081526040902080548190610428906108fd565b80601f0160208091040260200160405190810160405280929190818152602001828054610454906108fd565b80156104a15780601f10610476576101008083540402835291602001916104a1565b820191906000526020600020905b81548152906001019060200180831161048457829003601f168201915b505050600184015460028501546003909501549394909360ff8083169450610100909204909116915085565b336000908152600260208190526040909120015460ff16156105315760405162461bcd60e51b815260206004820152601c60248201527f566f74657220697320616c726561647920726567697374657265642e0000000060448201526064016101ea565b6040805160a081018252838152602080820184905260018284015260006060830181905260808301819052338152600290915291909120815182919081906105799082610986565b5060208201516001820155604080830151600283018054606086015115156101000261ff00199315159390931661ffff19909116179190911790556080909201516003909101555133907f1e7da607cf8e31513f12bb72316d891a5541379aaebc20ba1822516065b8e1dd906105f29086908690610a46565b60405180910390a2505050565b60408051606081018252838152602081018390526000918101829052600180548082018255925280519091829160039091027fb10e2d527612073b26eecdfd717e6a320cf44b4afac2b0732d9fcbe2b7fa0cf6019081906106609082610986565b5060208201518160010155604082015181600201555050600180805490506106889190610a68565b7f9b0a8f0ad1b0ad7af57b00dab3b09cf8f80e317d09d014ff55beb64005e4a6ff84846040516105f2929190610a46565b60015460009082106107025760405162461bcd60e51b815260206004820152601260248201527124b73b30b634b21031b0b73234b230ba329760711b60448201526064016101ea565b5060009081526003602052604090206002015490565b60006020828403121561072a57600080fd5b5035919050565b6000815180845260005b818110156107575760208185018101518683018201520161073b565b506000602082860101526020601f19601f83011685010191505092915050565b60608152600061078a6060830186610731565b60208301949094525060400152919050565b6000602082840312156107ae57600080fd5b81356001600160a01b03811681146107c557600080fd5b9392505050565b60a0815260006107df60a0830188610731565b60208301969096525092151560408401529015156060830152608090910152919050565b634e487b7160e01b600052604160045260246000fd5b6000806040838503121561082c57600080fd5b823567ffffffffffffffff8082111561084457600080fd5b818501915085601f83011261085857600080fd5b81358181111561086a5761086a610803565b604051601f8201601f19908116603f0116810190838211818310171561089257610892610803565b816040528281528860208487010111156108ab57600080fd5b826020860160208301376000602093820184015298969091013596505050505050565b634e487b7160e01b600052601160045260246000fd5b6000600182016108f6576108f66108ce565b5060010190565b600181811c9082168061091157607f821691505b60208210810361093157634e487b7160e01b600052602260045260246000fd5b50919050565b601f82111561098157600081815260208120601f850160051c8101602086101561095e5750805b601f850160051c820191505b8181101561097d5782815560010161096a565b5050505b505050565b815167ffffffffffffffff8111156109a0576109a0610803565b6109b4816109ae84546108fd565b84610937565b602080601f8311600181146109e957600084156109d15750858301515b600019600386901b1c1916600185901b17855561097d565b600085815260208120601f198616915b82811015610a18578886015182559484019460019091019084016109f9565b5085821015610a365787850151600019600388901b60f8161c191681555b5050505050600190811b01905550565b604081526000610a596040830185610731565b90508260208301529392505050565b81810381811115610a7b57610a7b6108ce565b9291505056fea2646970667358221220556be19e9f54d7f357688d3de3da4f3d8dd7f0bb24b366be2eaa211f22df48ee64736f6c63430008130033",
    "sourcePath": "c:/Users/dell/OneDrive/Desktop/WEB/CSS/copy.sol",
    "compiler": {
        "name": "solc",
        "version": "0.8.19+commit.7dd6d404"
    },
    "functionHashes": {
        "administrator()": "f53d0a8e",
        "candidateById(uint256)": "1159727a",
        "candidates(uint256)": "3477ee2e",
        "getVotes(uint256)": "ff981099",
        "getWinner()": "8e7ea5b2",
        "registerCandidate(string,uint256)": "f518b526",
        "registerVoter(string,uint256)": "e661ea5f",
        "vote(uint256)": "0121b93f",
        "voters(address)": "a3ec138d"
    },
    "gasEstimates": {
        "creation": {
            "codeDepositCost": "548600",
            "executionCost": "581",
            "totalCost": "549181"
        },
        "external": {
            "administrator()": "2403",
            "candidateById(uint256)": "infinite",
            "candidates(uint256)": "infinite",
            "getVotes(uint256)": "4675",
            "getWinner()": "infinite",
            "registerCandidate(string,uint256)": "infinite",
            "registerVoter(string,uint256)": "infinite",
            "vote(uint256)": "77416",
            "voters(address)": "infinite"
        }
    }
}